{
  "_format": "hh-sol-artifact-1",
  "contractName": "NFT",
  "sourceName": "contracts/NFT.sol",
  "abi": [
    {
      "inputs": [
        {
          "internalType": "address",
          "name": "marketplaceAddress",
          "type": "address"
        }
      ],
      "stateMutability": "nonpayable",
      "type": "constructor"
    },
    {
      "anonymous": false,
      "inputs": [
        {
          "indexed": true,
          "internalType": "address",
          "name": "owner",
          "type": "address"
        },
        {
          "indexed": true,
          "internalType": "address",
          "name": "approved",
          "type": "address"
        },
        {
          "indexed": true,
          "internalType": "uint256",
          "name": "tokenId",
          "type": "uint256"
        }
      ],
      "name": "Approval",
      "type": "event"
    },
    {
      "anonymous": false,
      "inputs": [
        {
          "indexed": true,
          "internalType": "address",
          "name": "owner",
          "type": "address"
        },
        {
          "indexed": true,
          "internalType": "address",
          "name": "operator",
          "type": "address"
        },
        {
          "indexed": false,
          "internalType": "bool",
          "name": "approved",
          "type": "bool"
        }
      ],
      "name": "ApprovalForAll",
      "type": "event"
    },
    {
      "anonymous": false,
      "inputs": [
        {
          "indexed": true,
          "internalType": "address",
          "name": "from",
          "type": "address"
        },
        {
          "indexed": true,
          "internalType": "address",
          "name": "to",
          "type": "address"
        },
        {
          "indexed": true,
          "internalType": "uint256",
          "name": "tokenId",
          "type": "uint256"
        }
      ],
      "name": "Transfer",
      "type": "event"
    },
    {
      "inputs": [
        {
          "internalType": "address",
          "name": "to",
          "type": "address"
        },
        {
          "internalType": "uint256",
          "name": "tokenId",
          "type": "uint256"
        }
      ],
      "name": "approve",
      "outputs": [],
      "stateMutability": "nonpayable",
      "type": "function"
    },
    {
      "inputs": [
        {
          "internalType": "address",
          "name": "owner",
          "type": "address"
        }
      ],
      "name": "balanceOf",
      "outputs": [
        {
          "internalType": "uint256",
          "name": "",
          "type": "uint256"
        }
      ],
      "stateMutability": "view",
      "type": "function"
    },
    {
      "inputs": [
        {
          "internalType": "uint256",
          "name": "tokenId",
          "type": "uint256"
        }
      ],
      "name": "getApproved",
      "outputs": [
        {
          "internalType": "address",
          "name": "",
          "type": "address"
        }
      ],
      "stateMutability": "view",
      "type": "function"
    },
    {
      "inputs": [
        {
          "internalType": "address",
          "name": "owner",
          "type": "address"
        },
        {
          "internalType": "address",
          "name": "operator",
          "type": "address"
        }
      ],
      "name": "isApprovedForAll",
      "outputs": [
        {
          "internalType": "bool",
          "name": "",
          "type": "bool"
        }
      ],
      "stateMutability": "view",
      "type": "function"
    },
    {
      "inputs": [
        {
          "internalType": "string",
          "name": "tokenURI",
          "type": "string"
        }
      ],
      "name": "mintToken",
      "outputs": [
        {
          "internalType": "uint256",
          "name": "",
          "type": "uint256"
        }
      ],
      "stateMutability": "nonpayable",
      "type": "function"
    },
    {
      "inputs": [],
      "name": "name",
      "outputs": [
        {
          "internalType": "string",
          "name": "",
          "type": "string"
        }
      ],
      "stateMutability": "view",
      "type": "function"
    },
    {
      "inputs": [
        {
          "internalType": "uint256",
          "name": "tokenId",
          "type": "uint256"
        }
      ],
      "name": "ownerOf",
      "outputs": [
        {
          "internalType": "address",
          "name": "",
          "type": "address"
        }
      ],
      "stateMutability": "view",
      "type": "function"
    },
    {
      "inputs": [
        {
          "internalType": "address",
          "name": "from",
          "type": "address"
        },
        {
          "internalType": "address",
          "name": "to",
          "type": "address"
        },
        {
          "internalType": "uint256",
          "name": "tokenId",
          "type": "uint256"
        }
      ],
      "name": "safeTransferFrom",
      "outputs": [],
      "stateMutability": "nonpayable",
      "type": "function"
    },
    {
      "inputs": [
        {
          "internalType": "address",
          "name": "from",
          "type": "address"
        },
        {
          "internalType": "address",
          "name": "to",
          "type": "address"
        },
        {
          "internalType": "uint256",
          "name": "tokenId",
          "type": "uint256"
        },
        {
          "internalType": "bytes",
          "name": "_data",
          "type": "bytes"
        }
      ],
      "name": "safeTransferFrom",
      "outputs": [],
      "stateMutability": "nonpayable",
      "type": "function"
    },
    {
      "inputs": [
        {
          "internalType": "address",
          "name": "operator",
          "type": "address"
        },
        {
          "internalType": "bool",
          "name": "approved",
          "type": "bool"
        }
      ],
      "name": "setApprovalForAll",
      "outputs": [],
      "stateMutability": "nonpayable",
      "type": "function"
    },
    {
      "inputs": [
        {
          "internalType": "bytes4",
          "name": "interfaceId",
          "type": "bytes4"
        }
      ],
      "name": "supportsInterface",
      "outputs": [
        {
          "internalType": "bool",
          "name": "",
          "type": "bool"
        }
      ],
      "stateMutability": "view",
      "type": "function"
    },
    {
      "inputs": [],
      "name": "symbol",
      "outputs": [
        {
          "internalType": "string",
          "name": "",
          "type": "string"
        }
      ],
      "stateMutability": "view",
      "type": "function"
    },
    {
      "inputs": [
        {
          "internalType": "uint256",
          "name": "tokenId",
          "type": "uint256"
        }
      ],
      "name": "tokenURI",
      "outputs": [
        {
          "internalType": "string",
          "name": "",
          "type": "string"
        }
      ],
      "stateMutability": "view",
      "type": "function"
    },
    {
      "inputs": [
        {
          "internalType": "address",
          "name": "from",
          "type": "address"
        },
        {
          "internalType": "address",
          "name": "to",
          "type": "address"
        },
        {
          "internalType": "uint256",
          "name": "tokenId",
          "type": "uint256"
        }
      ],
      "name": "transferFrom",
      "outputs": [],
      "stateMutability": "nonpayable",
      "type": "function"
    }
  ],
  "bytecode": "0x60806040523480156200001157600080fd5b50604051620019aa380380620019aa83398101604081905262000034916200016b565b604080518082018252600b81526a25b93cb83a37a134b9323d60a91b60208083019182528351808501909452600684526525a124a9222d60d11b9084015281519192916200008591600091620000c5565b5080516200009b906001906020840190620000c5565b5050600880546001600160a01b0319166001600160a01b03939093169290921790915550620001d8565b828054620000d3906200019b565b90600052602060002090601f016020900481019282620000f7576000855562000142565b82601f106200011257805160ff191683800117855562000142565b8280016001018555821562000142579182015b828111156200014257825182559160200191906001019062000125565b506200015092915062000154565b5090565b5b8082111562000150576000815560010162000155565b6000602082840312156200017d578081fd5b81516001600160a01b038116811462000194578182fd5b9392505050565b600281046001821680620001b057607f821691505b60208210811415620001d257634e487b7160e01b600052602260045260246000fd5b50919050565b6117c280620001e86000396000f3fe608060405234801561001057600080fd5b50600436106100ea5760003560e01c80636352211e1161008c578063a22cb46511610066578063a22cb465146101d6578063b88d4fde146101e9578063c87b56dd146101fc578063e985e9c51461020f576100ea565b80636352211e146101a857806370a08231146101bb57806395d89b41146101ce576100ea565b8063095ea7b3116100c8578063095ea7b31461014d57806323b872dd1461016257806333eba49a1461017557806342842e0e14610195576100ea565b806301ffc9a7146100ef57806306fdde0314610118578063081812fc1461012d575b600080fd5b6101026100fd366004611065565b610222565b60405161010f91906111a7565b60405180910390f35b61012061026a565b60405161010f91906111b2565b61014061013b3660046110e3565b6102fc565b60405161010f9190611156565b61016061015b36600461103c565b610348565b005b610160610170366004610f4e565b6103e0565b61018861018336600461109d565b610418565b60405161010f919061164f565b6101606101a3366004610f4e565b61045d565b6101406101b63660046110e3565b610478565b6101886101c9366004610f02565b6104ad565b6101206104f1565b6101606101e4366004611002565b610500565b6101606101f7366004610f89565b6105ce565b61012061020a3660046110e3565b61060d565b61010261021d366004610f1c565b61072e565b60006001600160e01b031982166380ac58cd60e01b148061025357506001600160e01b03198216635b5e139f60e01b145b8061026257506102628261075c565b90505b919050565b606060008054610279906116c7565b80601f01602080910402602001604051908101604052809291908181526020018280546102a5906116c7565b80156102f25780601f106102c7576101008083540402835291602001916102f2565b820191906000526020600020905b8154815290600101906020018083116102d557829003601f168201915b5050505050905090565b600061030782610775565b61032c5760405162461bcd60e51b8152600401610323906114d9565b60405180910390fd5b506000908152600460205260409020546001600160a01b031690565b600061035382610478565b9050806001600160a01b0316836001600160a01b031614156103875760405162461bcd60e51b8152600401610323906115bd565b806001600160a01b0316610399610792565b6001600160a01b031614806103b557506103b58161021d610792565b6103d15760405162461bcd60e51b815260040161032390611315565b6103db8383610796565b505050565b6103f16103eb610792565b82610804565b61040d5760405162461bcd60e51b8152600401610323906115fe565b6103db838383610881565b600061042460076109ae565b600061043060076109b7565b905061043c33826109bb565b6104468184610a9a565b600854610262906001600160a01b03166001610500565b6103db838383604051806020016040528060008152506105ce565b6000818152600260205260408120546001600160a01b0316806102625760405162461bcd60e51b8152600401610323906113bc565b60006001600160a01b0382166104d55760405162461bcd60e51b815260040161032390611372565b506001600160a01b031660009081526003602052604090205490565b606060018054610279906116c7565b610508610792565b6001600160a01b0316826001600160a01b031614156105395760405162461bcd60e51b815260040161032390611292565b8060056000610546610792565b6001600160a01b03908116825260208083019390935260409182016000908120918716808252919093529120805460ff19169215159290921790915561058a610792565b6001600160a01b03167f17307eab39ab6107e8899845ad3d59bd9653f200f220920489ca2b5937696c31836040516105c291906111a7565b60405180910390a35050565b6105df6105d9610792565b83610804565b6105fb5760405162461bcd60e51b8152600401610323906115fe565b61060784848484610ade565b50505050565b606061061882610775565b6106345760405162461bcd60e51b815260040161032390611488565b6000828152600660205260408120805461064d906116c7565b80601f0160208091040260200160405190810160405280929190818152602001828054610679906116c7565b80156106c65780601f1061069b576101008083540402835291602001916106c6565b820191906000526020600020905b8154815290600101906020018083116106a957829003601f168201915b5050505050905060006106d7610b11565b90508051600014156106eb57509050610265565b81511561071d578082604051602001610705929190611127565b60405160208183030381529060405292505050610265565b61072684610b23565b949350505050565b6001600160a01b03918216600090815260056020908152604080832093909416825291909152205460ff1690565b6001600160e01b031981166301ffc9a760e01b14919050565b6000908152600260205260409020546001600160a01b0316151590565b3390565b600081815260046020526040902080546001600160a01b0319166001600160a01b03841690811790915581906107cb82610478565b6001600160a01b03167f8c5be1e5ebec7d5bd14f71427d1e84f3dd0314c0f7b2291e5b200ac8c7c3b92560405160405180910390a45050565b600061080f82610775565b61082b5760405162461bcd60e51b8152600401610323906112c9565b600061083683610478565b9050806001600160a01b0316846001600160a01b031614806108715750836001600160a01b0316610866846102fc565b6001600160a01b0316145b806107265750610726818561072e565b826001600160a01b031661089482610478565b6001600160a01b0316146108ba5760405162461bcd60e51b815260040161032390611525565b6001600160a01b0382166108e05760405162461bcd60e51b81526004016103239061124e565b6108eb8383836103db565b6108f6600082610796565b6001600160a01b038316600090815260036020526040812080546001929061091f908490611684565b90915550506001600160a01b038216600090815260036020526040812080546001929061094d908490611658565b909155505060008181526002602052604080822080546001600160a01b0319166001600160a01b0386811691821790925591518493918716917fddf252ad1be2c89b69c2b068fc378daa952ba7f163c4a11628f55a4df523b3ef91a4505050565b80546001019055565b5490565b6001600160a01b0382166109e15760405162461bcd60e51b815260040161032390611453565b6109ea81610775565b15610a075760405162461bcd60e51b815260040161032390611217565b610a13600083836103db565b6001600160a01b0382166000908152600360205260408120805460019290610a3c908490611658565b909155505060008181526002602052604080822080546001600160a01b0319166001600160a01b03861690811790915590518392907fddf252ad1be2c89b69c2b068fc378daa952ba7f163c4a11628f55a4df523b3ef908290a45050565b610aa382610775565b610abf5760405162461bcd60e51b815260040161032390611405565b600082815260066020908152604090912082516103db92840190610de2565b610ae9848484610881565b610af584848484610ba6565b6106075760405162461bcd60e51b8152600401610323906111c5565b60408051602081019091526000815290565b6060610b2e82610775565b610b4a5760405162461bcd60e51b81526004016103239061156e565b6000610b54610b11565b90506000815111610b745760405180602001604052806000815250610b9f565b80610b7e84610cc1565b604051602001610b8f929190611127565b6040516020818303038152906040525b9392505050565b6000610bba846001600160a01b0316610ddc565b15610cb657836001600160a01b031663150b7a02610bd6610792565b8786866040518563ffffffff1660e01b8152600401610bf8949392919061116a565b602060405180830381600087803b158015610c1257600080fd5b505af1925050508015610c42575060408051601f3d908101601f19168201909252610c3f91810190611081565b60015b610c9c573d808015610c70576040519150601f19603f3d011682016040523d82523d6000602084013e610c75565b606091505b508051610c945760405162461bcd60e51b8152600401610323906111c5565b805181602001fd5b6001600160e01b031916630a85bd0160e11b149050610726565b506001949350505050565b606081610ce657506040805180820190915260018152600360fc1b6020820152610265565b8160005b8115610d105780610cfa81611702565b9150610d099050600a83611670565b9150610cea565b60008167ffffffffffffffff811115610d3957634e487b7160e01b600052604160045260246000fd5b6040519080825280601f01601f191660200182016040528015610d63576020820181803683370190505b5090505b841561072657610d78600183611684565b9150610d85600a8661171d565b610d90906030611658565b60f81b818381518110610db357634e487b7160e01b600052603260045260246000fd5b60200101906001600160f81b031916908160001a905350610dd5600a86611670565b9450610d67565b3b151590565b828054610dee906116c7565b90600052602060002090601f016020900481019282610e105760008555610e56565b82601f10610e2957805160ff1916838001178555610e56565b82800160010185558215610e56579182015b82811115610e56578251825591602001919060010190610e3b565b50610e62929150610e66565b5090565b5b80821115610e625760008155600101610e67565b600067ffffffffffffffff80841115610e9657610e9661175d565b604051601f8501601f191681016020018281118282101715610eba57610eba61175d565b604052848152915081838501861015610ed257600080fd5b8484602083013760006020868301015250509392505050565b80356001600160a01b038116811461026557600080fd5b600060208284031215610f13578081fd5b610b9f82610eeb565b60008060408385031215610f2e578081fd5b610f3783610eeb565b9150610f4560208401610eeb565b90509250929050565b600080600060608486031215610f62578081fd5b610f6b84610eeb565b9250610f7960208501610eeb565b9150604084013590509250925092565b60008060008060808587031215610f9e578081fd5b610fa785610eeb565b9350610fb560208601610eeb565b925060408501359150606085013567ffffffffffffffff811115610fd7578182fd5b8501601f81018713610fe7578182fd5b610ff687823560208401610e7b565b91505092959194509250565b60008060408385031215611014578182fd5b61101d83610eeb565b915060208301358015158114611031578182fd5b809150509250929050565b6000806040838503121561104e578182fd5b61105783610eeb565b946020939093013593505050565b600060208284031215611076578081fd5b8135610b9f81611773565b600060208284031215611092578081fd5b8151610b9f81611773565b6000602082840312156110ae578081fd5b813567ffffffffffffffff8111156110c4578182fd5b8201601f810184136110d4578182fd5b61072684823560208401610e7b565b6000602082840312156110f4578081fd5b5035919050565b6000815180845261111381602086016020860161169b565b601f01601f19169290920160200192915050565b6000835161113981846020880161169b565b83519083019061114d81836020880161169b565b01949350505050565b6001600160a01b0391909116815260200190565b6001600160a01b038581168252841660208201526040810183905260806060820181905260009061119d908301846110fb565b9695505050505050565b901515815260200190565b600060208252610b9f60208301846110fb565b60208082526032908201527f4552433732313a207472616e7366657220746f206e6f6e20455243373231526560408201527131b2b4bb32b91034b6b83632b6b2b73a32b960711b606082015260800190565b6020808252601c908201527f4552433732313a20746f6b656e20616c7265616479206d696e74656400000000604082015260600190565b60208082526024908201527f4552433732313a207472616e7366657220746f20746865207a65726f206164646040820152637265737360e01b606082015260800190565b60208082526019908201527f4552433732313a20617070726f766520746f2063616c6c657200000000000000604082015260600190565b6020808252602c908201527f4552433732313a206f70657261746f7220717565727920666f72206e6f6e657860408201526b34b9ba32b73a103a37b5b2b760a11b606082015260800190565b60208082526038908201527f4552433732313a20617070726f76652063616c6c6572206973206e6f74206f7760408201527f6e6572206e6f7220617070726f76656420666f7220616c6c0000000000000000606082015260800190565b6020808252602a908201527f4552433732313a2062616c616e636520717565727920666f7220746865207a65604082015269726f206164647265737360b01b606082015260800190565b60208082526029908201527f4552433732313a206f776e657220717565727920666f72206e6f6e657869737460408201526832b73a103a37b5b2b760b91b606082015260800190565b6020808252602e908201527f45524337323155524953746f726167653a2055524920736574206f66206e6f6e60408201526d32bc34b9ba32b73a103a37b5b2b760911b606082015260800190565b6020808252818101527f4552433732313a206d696e7420746f20746865207a65726f2061646472657373604082015260600190565b60208082526031908201527f45524337323155524953746f726167653a2055524920717565727920666f72206040820152703737b732bc34b9ba32b73a103a37b5b2b760791b606082015260800190565b6020808252602c908201527f4552433732313a20617070726f76656420717565727920666f72206e6f6e657860408201526b34b9ba32b73a103a37b5b2b760a11b606082015260800190565b60208082526029908201527f4552433732313a207472616e73666572206f6620746f6b656e2074686174206960408201526839903737ba1037bbb760b91b606082015260800190565b6020808252602f908201527f4552433732314d657461646174613a2055524920717565727920666f72206e6f60408201526e3732bc34b9ba32b73a103a37b5b2b760891b606082015260800190565b60208082526021908201527f4552433732313a20617070726f76616c20746f2063757272656e74206f776e656040820152603960f91b606082015260800190565b60208082526031908201527f4552433732313a207472616e736665722063616c6c6572206973206e6f74206f6040820152701ddb995c881b9bdc88185c1c1c9bdd9959607a1b606082015260800190565b90815260200190565b6000821982111561166b5761166b611731565b500190565b60008261167f5761167f611747565b500490565b60008282101561169657611696611731565b500390565b60005b838110156116b657818101518382015260200161169e565b838111156106075750506000910152565b6002810460018216806116db57607f821691505b602082108114156116fc57634e487b7160e01b600052602260045260246000fd5b50919050565b600060001982141561171657611716611731565b5060010190565b60008261172c5761172c611747565b500690565b634e487b7160e01b600052601160045260246000fd5b634e487b7160e01b600052601260045260246000fd5b634e487b7160e01b600052604160045260246000fd5b6001600160e01b03198116811461178957600080fd5b5056fea26469706673582212204b1d4a335c376b5fcdbe62c9a0cd6454afa8231d26623c227714581f9415ec3664736f6c63430008000033",
  "linkReferences": {},
  "deployedLinkReferences": {}
}