{
  "_format": "hh-sol-artifact-1",
  "contractName": "KBMarket",
  "sourceName": "contracts/KBMarket.sol",
  "abi": [
    {
      "inputs": [],
      "stateMutability": "nonpayable",
      "type": "constructor"
    },
    {
      "anonymous": false,
      "inputs": [
        {
          "indexed": true,
          "internalType": "uint256",
          "name": "itemId",
          "type": "uint256"
        },
        {
          "indexed": true,
          "internalType": "address",
          "name": "nftContract",
          "type": "address"
        },
        {
          "indexed": true,
          "internalType": "uint256",
          "name": "tokenId",
          "type": "uint256"
        },
        {
          "indexed": false,
          "internalType": "address",
          "name": "seller",
          "type": "address"
        },
        {
          "indexed": false,
          "internalType": "address",
          "name": "owner",
          "type": "address"
        },
        {
          "indexed": false,
          "internalType": "uint256",
          "name": "price",
          "type": "uint256"
        },
        {
          "indexed": false,
          "internalType": "bool",
          "name": "sold",
          "type": "bool"
        },
        {
          "indexed": false,
          "internalType": "bool",
          "name": "cancelled",
          "type": "bool"
        }
      ],
      "name": "MarketTokenMinted",
      "type": "event"
    },
    {
      "inputs": [
        {
          "internalType": "uint256",
          "name": "tokenId",
          "type": "uint256"
        }
      ],
      "name": "cancelMarketItem",
      "outputs": [],
      "stateMutability": "payable",
      "type": "function"
    },
    {
      "inputs": [
        {
          "internalType": "address",
          "name": "nftContract",
          "type": "address"
        },
        {
          "internalType": "uint256",
          "name": "itemId",
          "type": "uint256"
        }
      ],
      "name": "createMarketSale",
      "outputs": [],
      "stateMutability": "payable",
      "type": "function"
    },
    {
      "inputs": [],
      "name": "fetchItemsCreated",
      "outputs": [
        {
          "components": [
            {
              "internalType": "uint256",
              "name": "itemId",
              "type": "uint256"
            },
            {
              "internalType": "address",
              "name": "nftContract",
              "type": "address"
            },
            {
              "internalType": "uint256",
              "name": "tokenId",
              "type": "uint256"
            },
            {
              "internalType": "address payable",
              "name": "seller",
              "type": "address"
            },
            {
              "internalType": "address payable",
              "name": "owner",
              "type": "address"
            },
            {
              "internalType": "uint256",
              "name": "price",
              "type": "uint256"
            },
            {
              "internalType": "bool",
              "name": "sold",
              "type": "bool"
            },
            {
              "internalType": "bool",
              "name": "cancelled",
              "type": "bool"
            }
          ],
          "internalType": "struct KBMarket.MarketToken[]",
          "name": "",
          "type": "tuple[]"
        }
      ],
      "stateMutability": "view",
      "type": "function"
    },
    {
      "inputs": [],
      "name": "fetchMarketTokens",
      "outputs": [
        {
          "components": [
            {
              "internalType": "uint256",
              "name": "itemId",
              "type": "uint256"
            },
            {
              "internalType": "address",
              "name": "nftContract",
              "type": "address"
            },
            {
              "internalType": "uint256",
              "name": "tokenId",
              "type": "uint256"
            },
            {
              "internalType": "address payable",
              "name": "seller",
              "type": "address"
            },
            {
              "internalType": "address payable",
              "name": "owner",
              "type": "address"
            },
            {
              "internalType": "uint256",
              "name": "price",
              "type": "uint256"
            },
            {
              "internalType": "bool",
              "name": "sold",
              "type": "bool"
            },
            {
              "internalType": "bool",
              "name": "cancelled",
              "type": "bool"
            }
          ],
          "internalType": "struct KBMarket.MarketToken[]",
          "name": "",
          "type": "tuple[]"
        }
      ],
      "stateMutability": "view",
      "type": "function"
    },
    {
      "inputs": [],
      "name": "fetchMyNFTs",
      "outputs": [
        {
          "components": [
            {
              "internalType": "uint256",
              "name": "itemId",
              "type": "uint256"
            },
            {
              "internalType": "address",
              "name": "nftContract",
              "type": "address"
            },
            {
              "internalType": "uint256",
              "name": "tokenId",
              "type": "uint256"
            },
            {
              "internalType": "address payable",
              "name": "seller",
              "type": "address"
            },
            {
              "internalType": "address payable",
              "name": "owner",
              "type": "address"
            },
            {
              "internalType": "uint256",
              "name": "price",
              "type": "uint256"
            },
            {
              "internalType": "bool",
              "name": "sold",
              "type": "bool"
            },
            {
              "internalType": "bool",
              "name": "cancelled",
              "type": "bool"
            }
          ],
          "internalType": "struct KBMarket.MarketToken[]",
          "name": "",
          "type": "tuple[]"
        }
      ],
      "stateMutability": "view",
      "type": "function"
    },
    {
      "inputs": [],
      "name": "getListingPrice",
      "outputs": [
        {
          "internalType": "uint256",
          "name": "",
          "type": "uint256"
        }
      ],
      "stateMutability": "view",
      "type": "function"
    },
    {
      "inputs": [
        {
          "internalType": "address",
          "name": "nftContract",
          "type": "address"
        },
        {
          "internalType": "uint256",
          "name": "tokenId",
          "type": "uint256"
        },
        {
          "internalType": "uint256",
          "name": "price",
          "type": "uint256"
        }
      ],
      "name": "makeMarketItem",
      "outputs": [],
      "stateMutability": "payable",
      "type": "function"
    },
    {
      "inputs": [
        {
          "internalType": "uint256",
          "name": "tokenId",
          "type": "uint256"
        },
        {
          "internalType": "uint256",
          "name": "newprice",
          "type": "uint256"
        }
      ],
      "name": "updateMarketItemPrice",
      "outputs": [],
      "stateMutability": "payable",
      "type": "function"
    }
  ],
  "bytecode": "0x6080604052669fdf42f6e4800060055534801561001b57600080fd5b506001600055600480546001600160a01b03191633179055610fb4806100426000396000f3fe60806040526004361061007b5760003560e01c8063ae13a3171161004e578063ae13a317146100f5578063c23b139e14610108578063c69bdf751461011b578063f064c32e146101305761007b565b806312e8558514610080578063202e3740146100ab5780637a060f56146100cd578063a6e22b02146100e2575b600080fd5b34801561008c57600080fd5b50610095610145565b6040516100a29190610f15565b60405180910390f35b3480156100b757600080fd5b506100c061014b565b6040516100a29190610d5d565b6100e06100db366004610c95565b610360565b005b6100e06100f0366004610cc7565b61056a565b6100e0610103366004610cdf565b610608565b6100e0610116366004610c6c565b610665565b34801561012757600080fd5b506100c06107f0565b34801561013c57600080fd5b506100c06109f4565b60055490565b606060006101596001610c00565b905060008060005b838110156101bc573360066000610179846001610f1e565b81526020810191909152604001600020600401546001600160a01b031614156101aa576101a7600184610f1e565b92505b806101b481610f4d565b915050610161565b5060008267ffffffffffffffff8111156101e657634e487b7160e01b600052604160045260246000fd5b60405190808252806020026020018201604052801561021f57816020015b61020c610c11565b8152602001906001900390816102045790505b50905060005b8481101561035757336006600061023d846001610f1e565b81526020810191909152604001600020600401546001600160a01b03161415610345576000600681610270846001610f1e565b81526020808201929092526040908101600090812054808252600680855291839020835161010080820186528254825260018301546001600160a01b039081169783019790975260028301549582019590955260038201548616606082015260048201549095166080860152600581015460a08601529182015460ff808216151560c0870152939004909216151560e08401528551919350919085908790811061032a57634e487b7160e01b600052603260045260246000fd5b6020908102919091010152610340600186610f1e565b945050505b8061034f81610f4d565b915050610225565b50935050505090565b6002600054141561038c5760405162461bcd60e51b815260040161038390610ede565b60405180910390fd5b6002600055806103ae5760405162461bcd60e51b815260040161038390610e10565b60055434146103cf5760405162461bcd60e51b815260040161038390610e9a565b6103d96001610c08565b60006103e56001610c00565b6040805161010080820183528382526001600160a01b0388811660208085018281528587018b81523360608801818152600060808a0181815260a08b018f815260c08c0183815260e08d018481528f85526006998a9052938e90209c518d55965160018d0180546001600160a01b0319908116928d16929092179055955160028d0155925160038c0180548716918b16919091179055516004808c01805490961691909916179093555160058901559151969092018054925160ff199093169615159690961761ff0019169115159094021790935592516323b872dd60e01b815293945090926323b872dd926104e092913091899101610d06565b600060405180830381600087803b1580156104fa57600080fd5b505af115801561050e573d6000803e3d6000fd5b5050505082846001600160a01b0316827fca56974d303c36c15aa5ad02542c2993a0146828d30160759842bf2d8ba2750033600087600080604051610557959493929190610d2a565b60405180910390a4505060016000555050565b6002600054141561058d5760405162461bcd60e51b815260040161038390610ede565b60026000818155828152600660208190526040822090810180548383556001830180546001600160a01b0319908116909155948301849055600380840180548716905560048401805490961690955560059092019290925561ffff1961ff00199091166101001716905561060090610c08565b506001600055565b6002600054141561062b5760405162461bcd60e51b815260040161038390610ede565b60026000558061064d5760405162461bcd60e51b815260040161038390610e10565b60009182526006602052604082206005015560019055565b600260005414156106885760405162461bcd60e51b815260040161038390610ede565b6002600081815582815260066020526040902060058101549101543482146106c25760405162461bcd60e51b815260040161038390610e47565b6000838152600660205260408082206003015490516001600160a01b03909116913480156108fc02929091818181858888f1935050505015801561070a573d6000803e3d6000fd5b506040516323b872dd60e01b81526001600160a01b038516906323b872dd9061073b90309033908690600401610d06565b600060405180830381600087803b15801561075557600080fd5b505af1158015610769573d6000803e3d6000fd5b50505060008481526006602081905260409091206004810180546001600160a01b0319163317905501805460ff19166001179055506107a86002610c08565b6004546005546040516001600160a01b039092169181156108fc0291906000818181858888f193505050501580156107e4573d6000803e3d6000fd5b50506001600055505050565b606060006107fe6001610c00565b9050600061080c6003610c00565b6108166002610c00565b6108206001610c00565b61082a9190610f36565b6108349190610f36565b90506000808267ffffffffffffffff81111561086057634e487b7160e01b600052604160045260246000fd5b60405190808252806020026020018201604052801561089957816020015b610886610c11565b81526020019060019003908161087e5790505b50905060005b848110156103575760006006816108b7846001610f1e565b81526020810191909152604001600020600401546001600160a01b031614801561090c575060006006816108ec846001610f1e565b81526020810191909152604001600020600301546001600160a01b031614155b156109e257600061091e826001610f1e565b600081815260066020818152604092839020835161010080820186528254825260018301546001600160a01b039081169483019490945260028301549582019590955260038201548316606082015260048201549092166080830152600581015460a08301529182015460ff808216151560c0840152939004909216151560e08301528551929350918590879081106109c757634e487b7160e01b600052603260045260246000fd5b60209081029190910101526109dd600186610f1e565b945050505b806109ec81610f4d565b91505061089f565b60606000610a026001610c00565b905060008060005b83811015610a65573360066000610a22846001610f1e565b81526020810191909152604001600020600301546001600160a01b03161415610a5357610a50600184610f1e565b92505b80610a5d81610f4d565b915050610a0a565b5060008267ffffffffffffffff811115610a8f57634e487b7160e01b600052604160045260246000fd5b604051908082528060200260200182016040528015610ac857816020015b610ab5610c11565b815260200190600190039081610aad5790505b50905060005b84811015610357573360066000610ae6846001610f1e565b81526020810191909152604001600020600301546001600160a01b03161415610bee576000600681610b19846001610f1e565b81526020808201929092526040908101600090812054808252600680855291839020835161010080820186528254825260018301546001600160a01b039081169783019790975260028301549582019590955260038201548616606082015260048201549095166080860152600581015460a08601529182015460ff808216151560c0870152939004909216151560e084015285519193509190859087908110610bd357634e487b7160e01b600052603260045260246000fd5b6020908102919091010152610be9600186610f1e565b945050505b80610bf881610f4d565b915050610ace565b80545b919050565b80546001019055565b6040805161010081018252600080825260208201819052918101829052606081018290526080810182905260a0810182905260c0810182905260e081019190915290565b80356001600160a01b0381168114610c0357600080fd5b60008060408385031215610c7e578182fd5b610c8783610c55565b946020939093013593505050565b600080600060608486031215610ca9578081fd5b610cb284610c55565b95602085013595506040909401359392505050565b600060208284031215610cd8578081fd5b5035919050565b60008060408385031215610cf1578182fd5b50508035926020909101359150565b15159052565b6001600160a01b039384168152919092166020820152604081019190915260600190565b6001600160a01b039586168152939094166020840152604083019190915215156060820152901515608082015260a00190565b602080825282518282018190526000919060409081850190868401855b82811015610e0357815180518552868101516001600160a01b039081168887015286820151878701526060808301518216908701526080808301519091169086015260a0808201519086015260c080820151610dd882880182610d00565b505060e09081015190610ded86820183610d00565b5050610100939093019290850190600101610d7a565b5091979650505050505050565b6020808252601e908201527f5072696365206d757374206265206174206c65617374206f6e65207765690000604082015260600190565b60208082526033908201527f506c65617365207375626d6974207468652061736b696e6720707269636520696040820152726e206f7264657220746f20636f6e74696e756560681b606082015260800190565b60208082526024908201527f5072696365206d75737420626520657175616c20746f206c697374696e6720706040820152637269636560e01b606082015260800190565b6020808252601f908201527f5265656e7472616e637947756172643a207265656e7472616e742063616c6c00604082015260600190565b90815260200190565b60008219821115610f3157610f31610f68565b500190565b600082821015610f4857610f48610f68565b500390565b6000600019821415610f6157610f61610f68565b5060010190565b634e487b7160e01b600052601160045260246000fdfea26469706673582212208bea75bacc9912a5e2930b0208a434eec4c6ca62af89ef34ca6ef46b39545c9664736f6c63430008000033",
  "linkReferences": {},
  "deployedLinkReferences": {}
}