{
  "contractName": "KBMarket",
  "abi": [
    {
      "inputs": [],
      "stateMutability": "nonpayable",
      "type": "constructor"
    },
    {
      "anonymous": false,
      "inputs": [
        {
          "indexed": true,
          "internalType": "uint256",
          "name": "itemId",
          "type": "uint256"
        },
        {
          "indexed": true,
          "internalType": "address",
          "name": "nftContract",
          "type": "address"
        },
        {
          "indexed": true,
          "internalType": "uint256",
          "name": "tokenId",
          "type": "uint256"
        },
        {
          "indexed": false,
          "internalType": "address",
          "name": "seller",
          "type": "address"
        },
        {
          "indexed": false,
          "internalType": "address",
          "name": "owner",
          "type": "address"
        },
        {
          "indexed": false,
          "internalType": "uint256",
          "name": "price",
          "type": "uint256"
        },
        {
          "indexed": false,
          "internalType": "bool",
          "name": "sold",
          "type": "bool"
        }
      ],
      "name": "MarketTokenMinted",
      "type": "event"
    },
    {
      "inputs": [],
      "name": "getListingPrice",
      "outputs": [
        {
          "internalType": "uint256",
          "name": "",
          "type": "uint256"
        }
      ],
      "stateMutability": "view",
      "type": "function"
    },
    {
      "inputs": [
        {
          "internalType": "address",
          "name": "nftContract",
          "type": "address"
        },
        {
          "internalType": "uint256",
          "name": "tokenId",
          "type": "uint256"
        },
        {
          "internalType": "uint256",
          "name": "price",
          "type": "uint256"
        }
      ],
      "name": "makeMarketItem",
      "outputs": [],
      "stateMutability": "payable",
      "type": "function"
    },
    {
      "inputs": [
        {
          "internalType": "address",
          "name": "nftContract",
          "type": "address"
        },
        {
          "internalType": "uint256",
          "name": "itemId",
          "type": "uint256"
        }
      ],
      "name": "createMarketSale",
      "outputs": [],
      "stateMutability": "payable",
      "type": "function"
    },
    {
      "inputs": [],
      "name": "fetchMarketTokens",
      "outputs": [
        {
          "components": [
            {
              "internalType": "uint256",
              "name": "itemId",
              "type": "uint256"
            },
            {
              "internalType": "address",
              "name": "nftContract",
              "type": "address"
            },
            {
              "internalType": "uint256",
              "name": "tokenId",
              "type": "uint256"
            },
            {
              "internalType": "address payable",
              "name": "seller",
              "type": "address"
            },
            {
              "internalType": "address payable",
              "name": "owner",
              "type": "address"
            },
            {
              "internalType": "uint256",
              "name": "price",
              "type": "uint256"
            },
            {
              "internalType": "bool",
              "name": "sold",
              "type": "bool"
            }
          ],
          "internalType": "struct KBMarket.MarketToken[]",
          "name": "",
          "type": "tuple[]"
        }
      ],
      "stateMutability": "view",
      "type": "function"
    },
    {
      "inputs": [],
      "name": "fetchMyNFTs",
      "outputs": [
        {
          "components": [
            {
              "internalType": "uint256",
              "name": "itemId",
              "type": "uint256"
            },
            {
              "internalType": "address",
              "name": "nftContract",
              "type": "address"
            },
            {
              "internalType": "uint256",
              "name": "tokenId",
              "type": "uint256"
            },
            {
              "internalType": "address payable",
              "name": "seller",
              "type": "address"
            },
            {
              "internalType": "address payable",
              "name": "owner",
              "type": "address"
            },
            {
              "internalType": "uint256",
              "name": "price",
              "type": "uint256"
            },
            {
              "internalType": "bool",
              "name": "sold",
              "type": "bool"
            }
          ],
          "internalType": "struct KBMarket.MarketToken[]",
          "name": "",
          "type": "tuple[]"
        }
      ],
      "stateMutability": "view",
      "type": "function"
    },
    {
      "inputs": [],
      "name": "fetchItemsCreated",
      "outputs": [
        {
          "components": [
            {
              "internalType": "uint256",
              "name": "itemId",
              "type": "uint256"
            },
            {
              "internalType": "address",
              "name": "nftContract",
              "type": "address"
            },
            {
              "internalType": "uint256",
              "name": "tokenId",
              "type": "uint256"
            },
            {
              "internalType": "address payable",
              "name": "seller",
              "type": "address"
            },
            {
              "internalType": "address payable",
              "name": "owner",
              "type": "address"
            },
            {
              "internalType": "uint256",
              "name": "price",
              "type": "uint256"
            },
            {
              "internalType": "bool",
              "name": "sold",
              "type": "bool"
            }
          ],
          "internalType": "struct KBMarket.MarketToken[]",
          "name": "",
          "type": "tuple[]"
        }
      ],
      "stateMutability": "view",
      "type": "function"
    }
  ],
  "bytecode": "0x6080604052669fdf42f6e4800060045534801561001b57600080fd5b50600160008190555033600360006101000a81548173ffffffffffffffffffffffffffffffffffffffff021916908373ffffffffffffffffffffffffffffffffffffffff160217905550611931806100746000396000f3fe6080604052600436106100555760003560e01c806312e855851461005a578063202e3740146100855780637a060f56146100b0578063c23b139e146100cc578063c69bdf75146100e8578063f064c32e14610113575b600080fd5b34801561006657600080fd5b5061006f61013e565b60405161007c919061170c565b60405180910390f35b34801561009157600080fd5b5061009a610148565b6040516100a7919061166a565b60405180910390f35b6100ca60048036038101906100c591906112e6565b6104f8565b005b6100e660048036038101906100e191906112aa565b61085c565b005b3480156100f457600080fd5b506100fd610b15565b60405161010a919061166a565b60405180910390f35b34801561011f57600080fd5b50610128610e2b565b604051610135919061166a565b60405180910390f35b6000600454905090565b6060600061015660016111db565b905060008060005b838110156101ff573373ffffffffffffffffffffffffffffffffffffffff166005600060018461018e9190611771565b815260200190815260200160002060040160009054906101000a900473ffffffffffffffffffffffffffffffffffffffff1673ffffffffffffffffffffffffffffffffffffffff1614156101ec576001836101e99190611771565b92505b80806101f790611855565b91505061015e565b5060008267ffffffffffffffff811115610242577f4e487b7100000000000000000000000000000000000000000000000000000000600052604160045260246000fd5b60405190808252806020026020018201604052801561027b57816020015b6102686111ff565b8152602001906001900390816102605790505b50905060005b848110156104ed573373ffffffffffffffffffffffffffffffffffffffff16600560006001846102b19190611771565b815260200190815260200160002060040160009054906101000a900473ffffffffffffffffffffffffffffffffffffffff1673ffffffffffffffffffffffffffffffffffffffff1614156104da576000600560006001846103129190611771565b81526020019081526020016000206000015490506000600560008381526020019081526020016000209050806040518060e0016040529081600082015481526020016001820160009054906101000a900473ffffffffffffffffffffffffffffffffffffffff1673ffffffffffffffffffffffffffffffffffffffff1673ffffffffffffffffffffffffffffffffffffffff168152602001600282015481526020016003820160009054906101000a900473ffffffffffffffffffffffffffffffffffffffff1673ffffffffffffffffffffffffffffffffffffffff1673ffffffffffffffffffffffffffffffffffffffff1681526020016004820160009054906101000a900473ffffffffffffffffffffffffffffffffffffffff1673ffffffffffffffffffffffffffffffffffffffff1673ffffffffffffffffffffffffffffffffffffffff168152602001600582015481526020016006820160009054906101000a900460ff1615151515815250508486815181106104bd577f4e487b7100000000000000000000000000000000000000000000000000000000600052603260045260246000fd5b60200260200101819052506001856104d59190611771565b945050505b80806104e590611855565b915050610281565b508094505050505090565b6002600054141561053e576040517f08c379a0000000000000000000000000000000000000000000000000000000008152600401610535906116ec565b60405180910390fd5b600260008190555060008111610589576040517f08c379a00000000000000000000000000000000000000000000000000000000081526004016105809061168c565b60405180910390fd5b60045434146105cd576040517f08c379a00000000000000000000000000000000000000000000000000000000081526004016105c4906116cc565b60405180910390fd5b6105d760016111e9565b60006105e360016111db565b90506040518060e001604052808281526020018573ffffffffffffffffffffffffffffffffffffffff1681526020018481526020013373ffffffffffffffffffffffffffffffffffffffff168152602001600073ffffffffffffffffffffffffffffffffffffffff16815260200183815260200160001515815250600560008381526020019081526020016000206000820151816000015560208201518160010160006101000a81548173ffffffffffffffffffffffffffffffffffffffff021916908373ffffffffffffffffffffffffffffffffffffffff1602179055506040820151816002015560608201518160030160006101000a81548173ffffffffffffffffffffffffffffffffffffffff021916908373ffffffffffffffffffffffffffffffffffffffff16021790555060808201518160040160006101000a81548173ffffffffffffffffffffffffffffffffffffffff021916908373ffffffffffffffffffffffffffffffffffffffff16021790555060a0820151816005015560c08201518160060160006101000a81548160ff0219169083151502179055509050508373ffffffffffffffffffffffffffffffffffffffff166323b872dd3330866040518463ffffffff1660e01b81526004016107c4939291906115ee565b600060405180830381600087803b1580156107de57600080fd5b505af11580156107f2573d6000803e3d6000fd5b50505050828473ffffffffffffffffffffffffffffffffffffffff16827fcd9b0dfebab7db4dbe70606f69fadc8e987e7c80a65410f0bb5ae8bd72dabba73360008760006040516108469493929190611625565b60405180910390a4506001600081905550505050565b600260005414156108a2576040517f08c379a0000000000000000000000000000000000000000000000000000000008152600401610899906116ec565b60405180910390fd5b6002600081905550600060056000838152602001908152602001600020600501549050600060056000848152602001908152602001600020600201549050813414610922576040517f08c379a0000000000000000000000000000000000000000000000000000000008152600401610919906116ac565b60405180910390fd5b6005600084815260200190815260200160002060030160009054906101000a900473ffffffffffffffffffffffffffffffffffffffff1673ffffffffffffffffffffffffffffffffffffffff166108fc349081150290604051600060405180830381858888f1935050505015801561099e573d6000803e3d6000fd5b508373ffffffffffffffffffffffffffffffffffffffff166323b872dd3033846040518463ffffffff1660e01b81526004016109dc939291906115ee565b600060405180830381600087803b1580156109f657600080fd5b505af1158015610a0a573d6000803e3d6000fd5b50505050336005600085815260200190815260200160002060040160006101000a81548173ffffffffffffffffffffffffffffffffffffffff021916908373ffffffffffffffffffffffffffffffffffffffff16021790555060016005600085815260200190815260200160002060060160006101000a81548160ff021916908315150217905550610a9c60026111e9565b600360009054906101000a900473ffffffffffffffffffffffffffffffffffffffff1673ffffffffffffffffffffffffffffffffffffffff166108fc6004549081150290604051600060405180830381858888f19350505050158015610b06573d6000803e3d6000fd5b50505060016000819055505050565b60606000610b2360016111db565b90506000610b3160026111db565b610b3b60016111db565b610b4591906117c7565b90506000808267ffffffffffffffff811115610b8a577f4e487b7100000000000000000000000000000000000000000000000000000000600052604160045260246000fd5b604051908082528060200260200182016040528015610bc357816020015b610bb06111ff565b815260200190600190039081610ba85790505b50905060005b84811015610e2057600073ffffffffffffffffffffffffffffffffffffffff1660056000600184610bfa9190611771565b815260200190815260200160002060040160009054906101000a900473ffffffffffffffffffffffffffffffffffffffff1673ffffffffffffffffffffffffffffffffffffffff161415610e0d576000600182610c579190611771565b90506000600560008381526020019081526020016000209050806040518060e0016040529081600082015481526020016001820160009054906101000a900473ffffffffffffffffffffffffffffffffffffffff1673ffffffffffffffffffffffffffffffffffffffff1673ffffffffffffffffffffffffffffffffffffffff168152602001600282015481526020016003820160009054906101000a900473ffffffffffffffffffffffffffffffffffffffff1673ffffffffffffffffffffffffffffffffffffffff1673ffffffffffffffffffffffffffffffffffffffff1681526020016004820160009054906101000a900473ffffffffffffffffffffffffffffffffffffffff1673ffffffffffffffffffffffffffffffffffffffff1673ffffffffffffffffffffffffffffffffffffffff168152602001600582015481526020016006820160009054906101000a900460ff161515151581525050848681518110610df0577f4e487b7100000000000000000000000000000000000000000000000000000000600052603260045260246000fd5b6020026020010181905250600185610e089190611771565b945050505b8080610e1890611855565b915050610bc9565b508094505050505090565b60606000610e3960016111db565b905060008060005b83811015610ee2573373ffffffffffffffffffffffffffffffffffffffff1660056000600184610e719190611771565b815260200190815260200160002060030160009054906101000a900473ffffffffffffffffffffffffffffffffffffffff1673ffffffffffffffffffffffffffffffffffffffff161415610ecf57600183610ecc9190611771565b92505b8080610eda90611855565b915050610e41565b5060008267ffffffffffffffff811115610f25577f4e487b7100000000000000000000000000000000000000000000000000000000600052604160045260246000fd5b604051908082528060200260200182016040528015610f5e57816020015b610f4b6111ff565b815260200190600190039081610f435790505b50905060005b848110156111d0573373ffffffffffffffffffffffffffffffffffffffff1660056000600184610f949190611771565b815260200190815260200160002060030160009054906101000a900473ffffffffffffffffffffffffffffffffffffffff1673ffffffffffffffffffffffffffffffffffffffff1614156111bd57600060056000600184610ff59190611771565b81526020019081526020016000206000015490506000600560008381526020019081526020016000209050806040518060e0016040529081600082015481526020016001820160009054906101000a900473ffffffffffffffffffffffffffffffffffffffff1673ffffffffffffffffffffffffffffffffffffffff1673ffffffffffffffffffffffffffffffffffffffff168152602001600282015481526020016003820160009054906101000a900473ffffffffffffffffffffffffffffffffffffffff1673ffffffffffffffffffffffffffffffffffffffff1673ffffffffffffffffffffffffffffffffffffffff1681526020016004820160009054906101000a900473ffffffffffffffffffffffffffffffffffffffff1673ffffffffffffffffffffffffffffffffffffffff1673ffffffffffffffffffffffffffffffffffffffff168152602001600582015481526020016006820160009054906101000a900460ff1615151515815250508486815181106111a0577f4e487b7100000000000000000000000000000000000000000000000000000000600052603260045260246000fd5b60200260200101819052506001856111b89190611771565b945050505b80806111c890611855565b915050610f64565b508094505050505090565b600081600001549050919050565b6001816000016000828254019250508190555050565b6040518060e0016040528060008152602001600073ffffffffffffffffffffffffffffffffffffffff16815260200160008152602001600073ffffffffffffffffffffffffffffffffffffffff168152602001600073ffffffffffffffffffffffffffffffffffffffff168152602001600081526020016000151581525090565b60008135905061128f816118cd565b92915050565b6000813590506112a4816118e4565b92915050565b600080604083850312156112bd57600080fd5b60006112cb85828601611280565b92505060206112dc85828601611295565b9150509250929050565b6000806000606084860312156112fb57600080fd5b600061130986828701611280565b935050602061131a86828701611295565b925050604061132b86828701611295565b9150509250925092565b60006113418383611542565b60e08301905092915050565b6113568161180d565b82525050565b611365816117fb565b82525050565b611374816117fb565b82525050565b600061138582611737565b61138f818561174f565b935061139a83611727565b8060005b838110156113cb5781516113b28882611335565b97506113bd83611742565b92505060018101905061139e565b5085935050505092915050565b6113e18161181f565b82525050565b6113f08161181f565b82525050565b6000611403601e83611760565b91507f5072696365206d757374206265206174206c65617374206f6e652077656900006000830152602082019050919050565b6000611443603383611760565b91507f506c65617365207375626d6974207468652061736b696e67207072696365206960008301527f6e206f7264657220746f20636f6e74696e7565000000000000000000000000006020830152604082019050919050565b60006114a9602483611760565b91507f5072696365206d75737420626520657175616c20746f206c697374696e67207060008301527f72696365000000000000000000000000000000000000000000000000000000006020830152604082019050919050565b600061150f601f83611760565b91507f5265656e7472616e637947756172643a207265656e7472616e742063616c6c006000830152602082019050919050565b60e08201600082015161155860008501826115d0565b50602082015161156b602085018261135c565b50604082015161157e60408501826115d0565b506060820151611591606085018261134d565b5060808201516115a4608085018261134d565b5060a08201516115b760a08501826115d0565b5060c08201516115ca60c08501826113d8565b50505050565b6115d98161184b565b82525050565b6115e88161184b565b82525050565b6000606082019050611603600083018661136b565b611610602083018561136b565b61161d60408301846115df565b949350505050565b600060808201905061163a600083018761136b565b611647602083018661136b565b61165460408301856115df565b61166160608301846113e7565b95945050505050565b60006020820190508181036000830152611684818461137a565b905092915050565b600060208201905081810360008301526116a5816113f6565b9050919050565b600060208201905081810360008301526116c581611436565b9050919050565b600060208201905081810360008301526116e58161149c565b9050919050565b6000602082019050818103600083015261170581611502565b9050919050565b600060208201905061172160008301846115df565b92915050565b6000819050602082019050919050565b600081519050919050565b6000602082019050919050565b600082825260208201905092915050565b600082825260208201905092915050565b600061177c8261184b565b91506117878361184b565b9250827fffffffffffffffffffffffffffffffffffffffffffffffffffffffffffffffff038211156117bc576117bb61189e565b5b828201905092915050565b60006117d28261184b565b91506117dd8361184b565b9250828210156117f0576117ef61189e565b5b828203905092915050565b60006118068261182b565b9050919050565b60006118188261182b565b9050919050565b60008115159050919050565b600073ffffffffffffffffffffffffffffffffffffffff82169050919050565b6000819050919050565b60006118608261184b565b91507fffffffffffffffffffffffffffffffffffffffffffffffffffffffffffffffff8214156118935761189261189e565b5b600182019050919050565b7f4e487b7100000000000000000000000000000000000000000000000000000000600052601160045260246000fd5b6118d6816117fb565b81146118e157600080fd5b50565b6118ed8161184b565b81146118f857600080fd5b5056fea26469706673582212208b701bb3fe35bc93071cd376bfb26f89e428dcfa9ed55e515d84e296df93d53c64736f6c63430008000033",
  "immutableReferences": {},
  "source": "//SPDX-License-Identifier: MIT\npragma solidity ^0.8.0;\n\nimport '@openzeppelin/contracts/token/ERC721/ERC721.sol';\nimport '@openzeppelin/contracts/security/ReentrancyGuard.sol';\nimport '@openzeppelin/contracts/utils/Counters.sol';\n// security against transactions for multiple requests\nimport 'hardhat/console.sol';\n\ncontract KBMarket is ReentrancyGuard {\n    using Counters for Counters.Counter;\n\n    /* number of items minting, number of transactions, tokens that have not been sold\n     keep track of tokens total number - tokenId\n     arrays need to know the length - help to keep track for arrays */\n\n     Counters.Counter private _tokenIds;\n     Counters.Counter private _tokensSold;\n\n     // determine who is the owner of the contract\n     // charge a listing fee so the owner makes a commission\n\n     address payable owner; \n     // we are deploying to matic the API is the same so you can use ether the same as matic\n     // they both have 18 decimal \n     // 0.045 is in the cents \n     uint256 listingPrice = 0.045 ether;\n\n     constructor() {\n         //set the owner\n         owner = payable(msg.sender);\n     }\n\n     // structs can act like objects\n\n     struct MarketToken {\n         uint itemId;\n         address nftContract;\n         uint256 tokenId;\n         address payable seller;\n         address payable owner;\n         uint256 price;\n         bool sold;\n     }\n\n    // tokenId return which MarketToken -  fetch which one it is \n\n    mapping(uint256 => MarketToken) private idToMarketToken;\n\n    // listen to events from front end applications\n    event MarketTokenMinted(\n        uint indexed itemId,\n        address indexed nftContract,\n        uint256 indexed tokenId,\n        address seller,\n        address owner,\n        uint256 price,\n        bool sold\n    );\n\n    // get the listing price\n    function getListingPrice() public view returns (uint256) {\n        return listingPrice;\n    }\n\n    // two functions to interact with contract\n    // 1. create a market item to put it up for sale\n    // 2. create a market sale for buying and selling between parties\n\n    function makeMarketItem(\n        address nftContract,\n        uint tokenId,\n        uint price\n    )\n    public payable nonReentrant {\n        // nonReentrant is a modifier to prevent reentry attack\n\n    require(price > 0, 'Price must be at least one wei');\n    require(msg.value == listingPrice, 'Price must be equal to listing price');\n\n    _tokenIds.increment();\n    uint itemId = _tokenIds.current();\n\n    //putting it up for sale - bool - no owner\n    idToMarketToken[itemId] = MarketToken(\n        itemId,\n         nftContract,\n         tokenId,\n         payable(msg.sender),\n         payable(address(0)),\n         price,\n         false\n    );\n\n    // NFT transaction \n    IERC721(nftContract).transferFrom(msg.sender, address(this), tokenId);\n\n    emit MarketTokenMinted(\n        itemId,\n        nftContract,\n        tokenId,\n        msg.sender,\n        address(0),\n        price,\n        false\n    );\n    }\n    // function to conduct transactions and market sales \n\n    function createMarketSale(\n        address nftContract,\n        uint itemId) \n        public payable nonReentrant {\n            uint price = idToMarketToken[itemId].price;\n            uint tokenId = idToMarketToken[itemId].tokenId;\n            require(msg.value == price, 'Please submit the asking price in order to continue');\n\n            // transfer the amount to the seller\n            idToMarketToken[itemId].seller.transfer(msg.value);\n            // transfer the token from contract address to the buyer\n            IERC721(nftContract).transferFrom(address(this),msg.sender, tokenId);\n            idToMarketToken[itemId].owner = payable(msg.sender);\n            idToMarketToken[itemId].sold = true;\n            _tokensSold.increment(); \n\n            payable(owner).transfer(listingPrice);\n        }\n\n    // function to fetchMarketItems - minting, buying ans selling\n    // return the number of unsold items\n\n    function fetchMarketTokens() public view returns(MarketToken[] memory) {\n        uint itemCount = _tokenIds.current();\n        uint unsoldItemCount = _tokenIds.current() - _tokensSold.current();\n        uint currentIndex = 0;\n\n        // looping over the number of items created (if number has not been sold populate the array)\n        MarketToken[] memory items = new MarketToken[](unsoldItemCount);\n        for(uint i = 0; i < itemCount; i++) {\n            if(idToMarketToken[i + 1].owner == address(0)) {\n                uint currentId = i + 1;\n                MarketToken storage currentItem = idToMarketToken[currentId];\n                items[currentIndex] = currentItem; \n                currentIndex += 1;\n            }\n        } \n        return items; \n    }\n\n        // return nfts that the user has purchased\n\n        function fetchMyNFTs() public view returns (MarketToken[] memory) {\n            uint totalItemCount = _tokenIds.current();\n            // a second counter for each individual user\n            uint itemCount = 0;\n            uint currentIndex = 0;\n\n            for(uint i = 0; i < totalItemCount; i++) {\n                if(idToMarketToken[i + 1].owner == msg.sender) {\n                    itemCount += 1;\n                }\n            }\n\n            // second loop to loop through the amount you have purchased with itemcount\n            // check to see if the owner address is equal to msg.sender\n\n            MarketToken[] memory items = new MarketToken[](itemCount);\n            for(uint i = 0; i < totalItemCount; i++) {\n                if(idToMarketToken[i +1].owner == msg.sender) {\n                    uint currentId = idToMarketToken[i + 1].itemId;\n                    // current array\n                    MarketToken storage currentItem = idToMarketToken[currentId];\n                    items[currentIndex] = currentItem;\n                    currentIndex += 1;\n                }\n            }\n            return items;\n        }\n\n        // function for returning an array of minted nfts\n        function fetchItemsCreated() public view returns(MarketToken[] memory) {\n            // instead of .owner it will be the .seller\n            uint totalItemCount = _tokenIds.current();\n            uint itemCount = 0;\n            uint currentIndex = 0;\n\n      for(uint i = 0; i < totalItemCount; i++) {\n                if(idToMarketToken[i + 1].seller == msg.sender) {\n                    itemCount += 1;\n                }\n            }\n\n            // second loop to loop through the amount you have purchased with itemcount\n            // check to see if the owner address is equal to msg.sender\n\n            MarketToken[] memory items = new MarketToken[](itemCount);\n            for(uint i = 0; i < totalItemCount; i++) {\n                if(idToMarketToken[i +1].seller == msg.sender) {\n                    uint currentId = idToMarketToken[i + 1].itemId;\n                    MarketToken storage currentItem = idToMarketToken[currentId];\n                    items[currentIndex] = currentItem;\n                    currentIndex += 1;\n                }\n        }\n        return items;\n    }\n}",
  "sourcePath": "C:\\Users\\Administrator\\Desktop\\DEV\\Polygonft\\Polygonft\\contracts\\KBMarket.sol",
  "compiler": {
    "name": "solc",
    "version": "0.8.0+commit.c7dfd78e.Emscripten.clang"
  },
  "schemaVersion": "3.4.16",
  "updatedAt": "2023-11-16T05:56:40.616Z",
  "devdoc": {
    "kind": "dev",
    "methods": {},
    "version": 1
  },
  "userdoc": {
    "kind": "user",
    "methods": {},
    "version": 1
  }
}